:060000000A128A11D92F3B
:100F1C00080008000434013420340C348316031305
:100F2C0007138717193099002430980090308312DA
:100F3C0003139800080083160313880185011F30E2
:100F4C008600B83087008316031788018901831245
:100F5C0003138501880187010030F9000030F80087
:100F6C002530F7008030F6000A128A1194270A12F5
:100F7C008A117B080138FA007A08FB007B080238DA
:100F8C00FA007A08FB0083120313061DD32F0A12F2
:100F9C008A118F270A128A11D62F0A128A118E27CC
:100FAC000A128A1100280A128A1190270A128A1131
:100FBC00A7000A128A1191270A128A11FB000A1241
:100FCC008A1192270A128A11FC000A128A1193279D
:100FDC00FD00A001A101A201A301A401A501A6018C
:100FEC00F001F101F201F301F401F50183010A12A0
:040FFC008A11A12F86
:04400E00F2ECFFFFD2
:00000001FF
