:060000000A128A11F02F24
:100B64007E088A007F088200B2250A128A1180005A
:100B7400840A04087D0603190034FF0A0319FE0AD7
:100B8400B62D3F340034063400345B3400344F3423
:100B94000034663400346D3400347C34003407345B
:100BA40000347F3400346F34003470087104031946
:100BB400042EF501F50AF11BEB2D01300310F00DA5
:100BC400F10DFF3E031DE02D0130F4007408F5071C
:100BD400DD2D71087302031DF12D70087202031CD0
:100BE400F92D7008F2027108031CF303F3020130BB
:100BF4000310F10CF00CFF3E031DFA2D0130F50239
:100C0400031DEB2D7308F1007208F0000800F501D4
:100C1400F601700871040319402EF701F70AF11B5D
:100C24001F2E01300310F00DF10DFF3E031D142E95
:100C34000130F4007408F707112E01300310F50D8C
:100C4400F60DFF3E031D202E71087302031D2C2E8A
:100C540070087202031C352E7008F2027108031C1E
:100C6400F303F302751401300310F10CF00CFF3E92
:100C7400031D362E0130F702031D1F2E7608F100E6
:100C84007508F0000800F601F31F4F2EF209F3096E
:100C9400F20A0319F30AF601F60AF11F562EF009B7
:100CA400F109F00A0319F10A700871040319832E7B
:100CB400F501F50AF11B6A2E01300310F00DF10D58
:100CC400FF3E031D5F2E0130F4007408F5075C2E0F
:100CD40071087302031D702E70087202031C782EB3
:100CE4007008F2027108031CF303F30201300310CD
:100CF400F10CF00CFF3E031D792E0130F502031DAB
:100D04006A2E760803198B2EF209F309F20A0319E5
:100D1400F30A7308F1007208F0000800F601F11FED
:100D24009A2EF009F109F00A0319F10AF601F60AFC
:100D3400F31FA52EF209F309F20A0319F30A01308D
:100D4400F4007408F606F701F80170087104031939
:100D5400DC2EF501F50AF11BBB2E01300310F00D5A
:100D6400F10DFF3E031DB02E0130F4007408F507A9
:100D7400AD2E01300310F70DF80DFF3E031DBC2E00
:100D840071087302031DC82E70087202031CD12E51
:100D94007008F2027108031CF303F30277140130A4
:100DA4000310F10CF00CFF3E031DD22E0130F502AE
:100DB400031DBB2E76080319E42EF709F809F70A78
:100DC4000319F80A7808F1007708F0000800831284
:100DD4000313C601C701BE01BF012030840048309F
:100DE400F9000408FA001430FB0079088400831326
:100DF4000008FC00F90A7A0884007C088000FA0ADA
:100E0400FB0BF72E83160313890183120313890145
:100E14008316031388018312031388010A30F00038
:100E24000030F1004708F3004608F2000A128A1164
:100E340045260A128A11710883120313BB00700835
:100E4400BA000A30F0000030F1004708F300460809
:100E5400F2000A128A1190260A128A11710883126A
:100E64000313C1007008C0000A30F0000030F10024
:100E74004108F3004008F2000A128A11D7250A1229
:100E84008A11710883120313BD007008BC000A3074
:100E9400F0000030F1004108F3004008F2000A12AB
:100EA4008A1109260A128A11710883120313C300D6
:100EB4007008C2000A30F0000030F1004308F3006B
:100EC4004208F2000A128A11D7250A128A117108FF
:100ED40083120313B5007008B4000A30F000003028
:100EE400F1004308F3004208F2000A128A110926AD
:100EF4000A128A11710883120313C5007008C40012
:100F04000A30F0000030F1004508F3004408F20014
:100F14000A128A11D7250A128A117108831203133F
:100F2400B7007008B6000A30F0000030F100450840
:100F3400F3004408F2000A128A1109260A128A11DF
:100F4400710883120313B9007008B8003A08F90055
:100F54007907203E84008313000888000914213097
:100F6400FA007630F900F90BB52FFA0BB52F000013
:100F74008312031309103C08F9007907203E84000A
:100F840083130008880089142130FA007630F900B0
:100F9400F90BCA2FFA0BCA2F00008312031389100E
:100FA4003F08803AFF0080307F02031DDB2F64304E
:100FB4003E02031CE72F013083120313C6070318F4
:100FC400C70A0030C707BE01BF01013083120313F3
:100FD400BE070318BF0A0030BF07102F83135C300D
:100FE400FD000530FE00C330FF00483084000A12C3
:0C0FF4008A11B62583010A128A11E92E29
:04400E00F2ECFFFFD2
:00000001FF
